:0200000460009A
:100000004643464200000156000000000103030081
:1000100000000000000000000000000000000000E0
:1000200000000000000000000000000000000000D0
:1000300000000000000000000000000000000000C0
:1000400000000000010408000000000000000000A3
:100050000000200000000000000000000000000080
:100060000000000000000000000000000000000090
:100070000000000000000000000000000000000080
:10008000EB04180A063204260000000000000000FD
:10009000050404240000000000000000000000002F
:1000A0000000000000000000000000000000000050
:1000B0000604000000000000000000000000000036
:1000C0000000000000000000000000000000000030
:1000D00020041808000000000000000000000000DC
:1000E0000000000000000000000000000000000010
:1000F0000000000000000000000000000000000000
:10010000D8041808000000000000000000000000F3
:100110000204180804200000000000000000000095
:1001200000000000000000000000000000000000CF
:10013000600400000000000000000000000000005B
:1001400000000000000000000000000000000000AF
:10015000000000000000000000000000000000009F
:10016000000000000000000000000000000000008F
:10017000000000000000000000000000000000007F
:10018000000000000000000000000000000000006F
:10019000000000000000000000000000000000005F
:1001A000000000000000000000000000000000004F
:1001B000000000000000000000000000000000003F
:1001C000000100000010000001000000000000001D
:1001D000000001000000000000000000000000001E
:1001E000000000000000000000000000000000000F
:1001F00000000000000000000000000000000000FF
:10020000FFFFFFFFFFFFFFFFFFFFFFFFFFFFFFFFFE
:10021000FFFFFFFFFFFFFFFFFFFFFFFFFFFFFFFFEE
:10100000D1002043491600600000000000000000ED
:101010002010006000100060003802600000000036
:10102000000000600044020000000000FFFFFFFF1E
:10103000FFFFFFFFFFFFFFFFFFFFFFFFFFFFFFFFC0
:10104000FFFFFFFFFFFFFFFFFFFFFFFFFFFFFFFFB0
:10105000FFFFFFFFFFFFFFFFFFFFFFFFFFFFFFFFA0
:10106000FFFFFFFFFFFFFFFFFFFFFFFFFFFFFFFF90
:10140000814205D051F8043B40F8043B8242F9D8B0
:10141000704700BF044A05494FF0000342F8043BFF
:101420009142FBD8704700BFC03A0020C096002010
:101430002DE98848BFF34F8F00BF00BF00BF00BF3A
:1014400000F0D4F9674B0822C3F8542100BF00BF55
:1014500000BF00BF00BF00BF00BF00BF00BF00BF94
:1014600000BF00BF00BF00BF00BF00BF5E4A5F49B2
:101470005F48FFF7C5FF5F4A5F496048FFF7C0FF5D
:101480005F4CFFF7C7FF4FF470004FF0E0210023DF
:101490005C4AC1F8880D44F823200133B02BFAD1FF
:1014A000594B8021594A03F8011B9342FBD14FF05D
:1014B000E0254C4E4FF08039DFF880B1DFF880A195
:1014C0004FF0FF31C5F8084D0027C6F80491C6F863
:1014D00000B1C6F8F490C6F8F0A0D5F8243DDFF8C6
:1014E000648143F4E0234A4AC5F8243DD8F81C300F
:1014F00023F07F0343F04003C8F81C30D8F82430B1
:1015000023F07F0343F04003C8F824309166D1668E
:101510001167516700F072F93E4B3F49A3633F4B9F
:10152000E36363236B610323AF612B613C4BC5F81D
:10153000203DD5F8FC3D43F08073C5F8FC3D394BA8
:101540001A6842F001021A605B680B6000F0DEF975
:10155000C6F804913448C6F800B1C6F8F490C6F84D
:10156000F0A000F069FBD8F86C10304B304A41F421
:101570004051C8F86C101F60C3F80871C3F81871A7
:10158000C3F82871C3F83871936BDB0708D442F6AF
:101590001563284951651365936B43F00103936309
:1015A000234A254C936843F00113936000F012FB2B
:1015B00000F04AFB00F0D8F900F01AF92368132B69
:1015C000FCD900F069FA2368B3F5967FFBD300F0ED
:1015D00013F900F00FF900F047FB00F041FB30BFBA
:1015E000FDE700BF00800D40E8DA01007C1E0060CE
:1015F00000000000C03A002068F9016000000020EF
:1016000000380020DD49000000E400E0A0E400E034
:1016100000C00A400D5E000090950020115E0000A1
:1016200000002020001000E00046C32300400840D6
:1016300000400D400000C056949500201B1018205B
:101640000C0D111300C00F40054B4FF42A01054A41
:1016500005485A641864054A99639546FFF7E8FE01
:1016600000C00A40FFAAAAAA070020000000062026
:1016700043690A4A03EB011010B4037A084C02EBE9
:101680000313D3E901321460C2681A6003690BB115
:1016900042691A605DF8044B704700BFA40D00203A
:1016A00061F801004369027E03EB021292F808C060
:1016B0008C451CD01A7AFF2A19D0914210B50446E5
:1016C00016D01A7EFF2A06D00121D3E90023126822
:1016D0001A4201D1217610BD064B0522204603EBAC
:1016E0000C135B681A60FFF7C3FF2176F3E77047BE
:1016F0000021EAE7A40D002043690A4A03EB011028
:1017000010B490F82830084C02EB0313D3E90132EF
:101710001460C26A1A60036B0BB1426B1A605DF809
:10172000044B7047A40D002061F801004369427E1C
:1017300003EB021292F828C08C451ED093F82820A3
:10174000FF2A1AD0914210B5044617D093F83820DA
:10175000FF2A06D00121D3E9002312681A4201D1E1
:10176000617610BD064B0522204603EB0C135B6827
:101770001A60FFF7C1FF6176F3E770470021EAE7DF
:10178000A40D0020164942698B6B23F47C0343F4BB
:10179000802370B58B630446124DD2E900130A68AA
:1017A0001A4303690A60022200211A610E4A196174
:1017B0009A6401225A629D624FF43035DD624FF027
:1017C00001159E6C1E6519629D651A61017EFFF709
:1017D0004FFF617E2046BDE87040FFF78DBF00BF20
:1017E00000C00F40B80B05053B372819704700BFF4
:1017F000704700BF704700BF00BF704710B44FF084
:10180000E023002110243148C3F8941DC3F89C4DF7
:101810001124C3F8A00D2E48C3F89C4D1224C3F820
:10182000A00D2C48C3F89C4D2B4AC3F8A00D2B4C9F
:1018300042F015022A48C3F89C4DC3F8A00D294C6C
:101840002948C3F89C4DC3F8A00D284CC3F89C2D23
:101850002748284AC3F8A04DC3F89C0DC3F8A02D13
:1018600002F5A022244C0C322448C3F89C4DC3F846
:10187000A02D234AC3F89C0D224CC3F8A02D02F1E1
:101880004062C3F89C4D2048C3F8A02D0C32C3F829
:101890009C0DC3F8A02D00BF00BF00BF00BF00BF5C
:1018A0000122C3F8942DBFF34F8FBFF36F8FC3F89E
:1018B000501FBFF34F8FBFF36F8FD3F8142D5DF818
:1018C000044B42F44032C3F8142D70473F0000101F
:1018D0002500080709001000C09600201300200012
:1018E0002100020714000020250008130900001041
:1018F0001600202027000B1317000040180000607E
:101900002F000B07190000701A000080F0B4154A70
:1019100040274FF480314FF480564FF400554FF478
:10192000404443F24200136913F0020F0ED113F446
:10193000005F0FD013F4805F0ED0002BF3DA13F4A6
:10194000803F0BD15B060BD5F0BC704794615161B1
:101950009061E8E75561E6E75661E4E79161E2E707
:101960005761E0E700800D403F4A03203F49F3EE16
:10197000095AD2F880304FF0000C9FED3D6A23F0F9
:1019800001039FED3C5A30B4C2F88030C2F8900099
:10199000D1F8E010384DCBB2384C39482B6007EE07
:1019A000903A0B0DC1F30B21F8EEE77A06EE903A70
:1019B00007EE101A334BB8EEC77A2160F8EEE66AEC
:1019C000314937EEC66A37EEC55A76EEC76A77EE0A
:1019D000E57A26EE266AC3ED006A25EE265AD2F88D
:1019E000803067EEA64AC0ED007AC6EE275A274837
:1019F00085EE276AC4EEA76A75EE875AFCEEE55AB3
:101A000036EE076A15EE904ABCEEC66A43EA045306
:101A100076EE877AC2F8803016EE103AD2F890410E
:101A2000FCEEE77A01EA0341214317EE903AC2F84F
:101A30009011C3F30B03D2F890110B431449C2F871
:101A40009031D2F8803043F00203C2F88030114B5D
:101A500080F840C0C1F840314FF0E023012230BC93
:101A6000C3F80821704700BF00810D4000441F40AB
:101A70000000AA420000B4420C9500200895002006
:101A800010950020149500200000FF0F00E400E0F6
:101A900000380020CD4B0000314B40F6617210B58C
:101AA000C3F8202140F2044400F0D2F82D4A2E4918
:101AB000D2F880302D4843F00303C2F880302C4B1D
:101AC000C1F8604102681A4203D1D1F8A8319A07DF
:101AD0001BD0254A4FF00041244B5963D2F84031C6
:101AE00043F00203C2F84031D2F840319B07FBD4E7
:101AF0004FF400304FF0E0211C4B4FF00042C1F892
:101B00008C0219209A6300F0A7F8184A4FF0804021
:101B1000154C002190630A20164B11604FF420727F
:101B2000C4F8A801184600F08BF84FF48002034671
:101B30004FF4810040F243111860C4F858311A6420
:101B40000D4B0E4AC4F84811C3F804224FF0E022AE
:101B50004FF400310123C2F80C11C4F8403110BD1C
:101B600000800D4000C00F4000002E4000900D404E
:101B7000001C1E000000002000380020B54D0000B1
:101B800008B50E4B1B6E9B0700D4FBBE72B60C4B08
:101B900000200C4AC3F8400103F160430A49A3F551
:101BA0005F2311649D46BFF34F8F4FF40013074826
:101BB000074ADB6902609B68984700BF00441F40EA
:101BC00000002E4000C00A400300200000802020BA
:101BD000000012EB104BA020104AD96E41F44031A6
:101BE00010B4D96640F23764D96E41F44071D966B9
:101BF00054649064936C1B06FCD4094A40F237612C
:101C0000A02351649364936C13F08003FBD1054AC5
:101C100013705DF8044B704700C00F4000400C404B
:101C200000800C4081960020F8B500BFF8BC08BCCD
:101C30009E467047000000005FF800F0753D000010
:101C40005FF800F05D7A01005FF800F0CD48000019
:101C50005FF800F0255500005FF800F065400000D7
:101C60005FF800F0514300005FF800F0017B0100D5
:101C700005010000112C00008D5E0000E5780000D9
:041C80005DDE000025
:101C840080C00F4000000003190000001000000095
:101C9400E8841F4001000000FF000000FF00000076
:101CA4000000000000000000180000001000000008
:101CB400E4841F4001000000FF000000FF0000005A
:101CC40000000000000000001F0000007D33000041
:101CD40070C00F40000C0000110000001100000053
:101CE400E0841F40020000002400000012000000F5
:101CF400E0841F40010000001000000011000000FB
:101D0400DC841F40020000002500000012000000D7
:101D1400DC841F40010000001E000000713300003D
:101D240070C00F40C000000012000000130000004B
:101D3400D0841F4001000000FF000000FF000000ED
:101D44000000000000000000130000001300000069
:101D5400CC841F4001000000FF000000FF000000D1
:101D640000000000000000001C00000065330000BB
:101D74001603550053004200200053006500720012
:101D8400690061006C0000001803540065006500E0
:101D94006E00730079006400750069006E006F00C6
:101DA4000403090409026200030100C032080B00A5
:101DB40002020201000904000001020201000524DC
:101DC4000010010524010101042402060524060073
:101DD400010705820310001009040100020A000033
:101DE40000070503024000000705840240000009C3
:101DF40004020002FF6AFF00070581024000010798
:101E0400050102400001000009026200030100C054
:101E140032080B0002020201000904000001020260
:101E24000100052400100105240101010424020617
:101E340005240600010705820310000509040100BA
:101E4400020A0000000705030200020007058402DD
:101E54000002000904020002FF6AC70007058102AC
:101E64000002010705010200020100000A06000247
:081E7400EF0201400100000033
:101E7C000000000000000000000000000000000056
:101E8C000000000000000000000000000000000046
:101E9C00F8B54FF084439D695A6915400DD0254F14
:101EAC0001269D6195FAA5F4B4FA84F457F8243010
:101EBC0006FA04F49847A543F4D11F4B9D695A695F
:101ECC0015400DD01D4F01269D6195FAA5F4B4FA6D
:101EDC0084F457F8243006FA04F49847A543F4D157
:101EEC00174B9D695A6915400DD0164F01269D61FF
:101EFC0095FAA5F4B4FA84F457F8243006FA04F4ED
:101F0C009847A543F4D1104B9D695A6915400DD0E3
:101F1C000E4F01269D6195FAA5F4B4FA84F457F896
:101F2C00243006FA04F49847A543F4D1BFF34F8F3D
:101F3C00F8BD00BF14310020004000429431002055
:101F4C00008000421432002000C000429432002075
:101F5C000548064B1B1AD90F01EBA301491002D0FF
:101F6C00034B03B118477047C03A0020C03A002019
:101F7C000000000008B5054B1BB105490548AFF33F
:101F8C000080BDE80840FFF7E3BF00BF0000000081
:101F9C00809400200044026010B58EB0044600F21C
:101FAC0087100DF11E0307AA0DF11A0103F0E8FAD0
:101FBC00BDF91A3094ED5F4A04F5D47E05EE103A63
:101FCC00BDF91C30B7EEC44A0DF1200C06EE103AE8
:101FDC00BDF91E30B8EEC55B07EE103AB8EEC66B15
:101FEC00B8EEC77B25EE045B26EE046B27EE047B74
:101FFC009FED0F3B25EE035B26EE036B27EE037B79
:10200C0084ED6A5B84ED6C6B84ED6E7BBEE80F0037
:10201C00ACE80F009EE803009DED0A1B9DED080B3C
:10202C008CE803009DED0C2B0EB010BDAFF30080BF
:10203C00399D52A246DF913F08B50D2003F0F2FF07
:10204C0001460D20B1FA81F1490903F0C1FF024AA2
:10205C00024B12681A6008BD949500209C940020D5
:10206C000021007C04F08EBA38B504460D46007A87
:10207C00012103F0ADFF207B002103F0A9FF207CA0
:10208C0085EAE571A1EBE571BDE8384004F07ABA58
:10209C0038B504460D46007A002103F099FF207BE9
:1020AC00012103F095FF207C85EAE571A1EBE57138
:1020BC00BDE8384004F066BA10B58EB0044600F5A1
:1020CC00C0700DF11E0307AA0DF11A0103F0C2F83E
:1020DC00BDF91A3094ED5E3A04F5C87E05EE103A5F
:1020EC00BDF91C30B7EEC33A94ED524A06EE103AE5
:1020FC00BDF91E30B8EEC55B0DF1200C07EE103AA1
:10210C00B8EEC66BB7EEC44AB8EEC77B25EE035BE0
:10211C0026EE036B27EE037B25EE045B26EE046BA9
:10212C0027EE047B84ED645B84ED666B84ED687B49
:10213C00BEE80F00ACE80F009EE803009DED0A1B03
:10214C009DED080B8CE803009DED0C2B0EB010BD23
:10215C0010B5044682B00C481DF0F2FB04F5C070BB
:10216C00019003F04DF8019803F060F808B902B043
:10217C0010BD04F28710019003F0D2F9019802B05F
:10218C00BDE8104003F0E2B990200020214B1A6802
:10219C00D2E90010D3680968006810B4184294683A
:1021AC0001EA04012ED0137C03F00303D9B943F0E8
:1021BC0008039908013B11740D2B0BD8DFE803F0D1
:1021CC000D071C070A160D0D160A071C070D53697F
:1021DC00013B53615DF8044B704753695DF8044B48
:1021EC0001335361704743F00403E0E753695DF832
:1021FC00044B023B5361704753695DF8044B023347
:10220C0053617047137C03F003030029D1D043F0D2
:10221C000403CEE7A48C0020214B5A68D2E90010AD
:10222C00D3680968006810B41842946801EA040184
:10223C002ED0137C03F00303D9B943F0080399089B
:10224C00013B11740D2B0BD8DFE803F00D071C07B5
:10225C000A160D0D160A071C070D5369013B536135
:10226C005DF8044B704753695DF8044B01335361BF
:10227C00704743F00403E0E753695DF8044B023BFD
:10228C005361704753695DF8044B023353617047D7
:10229C00137C03F003030029D1D043F00403CEE7F1
:1022AC00A48C0020214B9A68D2E90010D3680968ED
:1022BC00006810B41842946801EA04012ED0137C13
:1022CC0003F00303D9B943F008039908013B1174D7
:1022DC000D2B0BD8DFE803F00D071C070A160D0DAC
:1022EC00160A071C070D5369013B53615DF8044B3B
:1022FC00704753695DF8044B01335361704743F0E9
:10230C000403E0E753695DF8044B023B53617047EB
:10231C0053695DF8044B023353617047137C03F02F
:10232C0003030029D1D043F00403CEE7A48C002092
:10233C00214BDA68D2E90010D3680968006810B440
:10234C001842946801EA04012ED0137C03F00303B5
:10235C00D9B943F008039908013B11740D2B0BD824
:10236C00DFE803F00D071C070A160D0D160A071CF3
:10237C00070D5369013B53615DF8044B704753697A
:10238C005DF8044B01335361704743F00403E0E7FD
:10239C0053695DF8044B023B5361704753695DF818
:1023AC00044B023353617047137C03F00303002981
:1023BC00D1D043F00403CEE7A48C0020214B1A6942
:1023CC00D2E90010D3680968006810B41842946808
:1023DC0001EA04012ED0137C03F00303D9B943F0B6
:1023EC0008039908013B11740D2B0BD8DFE803F09F
:1023FC000D071C070A160D0D160A071C070D53694D
:10240C00013B53615DF8044B704753695DF8044B15
:10241C0001335361704743F00403E0E753695DF8FF
:10242C00044B023B5361704753695DF8044B023314
:10243C0053617047137C03F003030029D1D043F0A0
:10244C000403CEE7A48C0020214B5A69D2E900107A
:10245C00D3680968006810B41842946801EA040152
:10246C002ED0137C03F00303D9B943F00803990869
:10247C00013B11740D2B0BD8DFE803F00D071C0783
:10248C000A160D0D160A071C070D5369013B536103
:10249C005DF8044B704753695DF8044B013353618D
:1024AC00704743F00403E0E753695DF8044B023BCB
:1024BC005361704753695DF8044B023353617047A5
:1024CC00137C03F003030029D1D043F00403CEE7BF
:1024DC00A48C0020214B9A69D2E90010D3680968BA
:1024EC00006810B41842946801EA04012ED0137CE1
:1024FC0003F00303D9B943F008039908013B1174A5
:10250C000D2B0BD8DFE803F00D071C070A160D0D79
:10251C00160A071C070D5369013B53615DF8044B08
:10252C00704753695DF8044B01335361704743F0B6
:10253C000403E0E753695DF8044B023B53617047B9
:10254C0053695DF8044B023353617047137C03F0FD
:10255C0003030029D1D043F00403CEE7A48C002060
:10256C00214BDA69D2E90010D3680968006810B40D
:10257C001842946801EA04012ED0137C03F0030383
:10258C00D9B943F008039908013B11740D2B0BD8F2
:10259C00DFE803F00D071C070A160D0D160A071CC1
:1025AC00070D5369013B53615DF8044B7047536948
:1025BC005DF8044B01335361704743F00403E0E7CB
:1025CC0053695DF8044B023B5361704753695DF8E6
:1025DC00044B023353617047137C03F0030300294F
:1025EC00D1D043F00403CEE7A48C0020214B1A6A0F
:1025FC00D2E90010D3680968006810B418429468D6
:10260C0001EA04012ED0137C03F00303D9B943F083
:10261C0008039908013B11740D2B0BD8DFE803F06C
:10262C000D071C070A160D0D160A071C070D53691A
:10263C00013B53615DF8044B704753695DF8044BE3
:10264C0001335361704743F00403E0E753695DF8CD
:10265C00044B023B5361704753695DF8044B0233E2
:10266C0053617047137C03F003030029D1D043F06E
:10267C000403CEE7A48C0020214B5A6AD2E9001047
:10268C00D3680968006810B41842946801EA040120
:10269C002ED0137C03F00303D9B943F00803990837
:1026AC00013B11740D2B0BD8DFE803F00D071C0751
:1026BC000A160D0D160A071C070D5369013B5361D1
:1026CC005DF8044B704753695DF8044B013353615B
:1026DC00704743F00403E0E753695DF8044B023B99
:1026EC005361704753695DF8044B02335361704773
:1026FC00137C03F003030029D1D043F00403CEE78D
:10270C00A48C0020214B9A6AD2E90010D368096886
:10271C00006810B41842946801EA04012ED0137CAE
:10272C0003F00303D9B943F008039908013B117472
:10273C000D2B0BD8DFE803F00D071C070A160D0D47
:10274C00160A071C070D5369013B53615DF8044BD6
:10275C00704753695DF8044B01335361704743F084
:10276C000403E0E753695DF8044B023B5361704787
:10277C0053695DF8044B023353617047137C03F0CB
:10278C0003030029D1D043F00403CEE7A48C00202E
:10279C00214BDA6AD2E90010D3680968006810B4DA
:1027AC001842946801EA04012ED0137C03F0030351
:1027BC00D9B943F008039908013B11740D2B0BD8C0
:1027CC00DFE803F00D071C070A160D0D160A071C8F
:1027DC00070D5369013B53615DF8044B7047536916
:1027EC005DF8044B01335361704743F00403E0E799
:1027FC0053695DF8044B023B5361704753695DF8B4
:10280C00044B023353617047137C03F0030300291C
:10281C00D1D043F00403CEE7A48C0020214B1A6BDB
:10282C00D2E90010D3680968006810B418429468A3
:10283C0001EA04012ED0137C03F00303D9B943F051
:10284C0008039908013B11740D2B0BD8DFE803F03A
:10285C000D071C070A160D0D160A071C070D5369E8
:10286C00013B53615DF8044B704753695DF8044BB1
:10287C0001335361704743F00403E0E753695DF89B
:10288C00044B023B5361704753695DF8044B0233B0
:10289C0053617047137C03F003030029D1D043F03C
:1028AC000403CEE7A48C0020214B5A6BD2E9001014
:1028BC00D3680968006810B41842946801EA0401EE
:1028CC002ED0137C03F00303D9B943F00803990805
:1028DC00013B11740D2B0BD8DFE803F00D071C071F
:1028EC000A160D0D160A071C070D5369013B53619F
:1028FC005DF8044B704753695DF8044B0133536129
:10290C00704743F00403E0E753695DF8044B023B66
:10291C005361704753695DF8044B02335361704740
:10292C00137C03F003030029D1D043F00403CEE75A
:10293C00A48C0020214B9A6BD2E90010D368096853
:10294C00006810B41842946801EA04012ED0137C7C
:10295C0003F00303D9B943F008039908013B117440
:10296C000D2B0BD8DFE803F00D071C070A160D0D15
:10297C00160A071C070D5369013B53615DF8044BA4
:10298C00704753695DF8044B01335361704743F052
:10299C000403E0E753695DF8044B023B5361704755
:1029AC0053695DF8044B023353617047137C03F099
:1029BC0003030029D1D043F00403CEE7A48C0020FC
:1029CC00214BDA6BD2E90010D3680968006810B4A7
:1029DC001842946801EA04012ED0137C03F003031F
:1029EC00D9B943F008039908013B11740D2B0BD88E
:1029FC00DFE803F00D071C070A160D0D160A071C5D
:102A0C00070D5369013B53615DF8044B70475369E3
:102A1C005DF8044B01335361704743F00403E0E766
:102A2C0053695DF8044B023B5361704753695DF881
:102A3C00044B023353617047137C03F003030029EA
:102A4C00D1D043F00403CEE7A48C0020214B1A6CA8
:102A5C00D2E90010D3680968006810B41842946871
:102A6C0001EA04012ED0137C03F00303D9B943F01F
:102A7C0008039908013B11740D2B0BD8DFE803F008
:102A8C000D071C070A160D0D160A071C070D5369B6
:102A9C00013B53615DF8044B704753695DF8044B7F
:102AAC0001335361704743F00403E0E753695DF869
:102ABC00044B023B5361704753695DF8044B02337E
:102ACC0053617047137C03F003030029D1D043F00A
:102ADC000403CEE7A48C0020214B5A6CD2E90010E1
:102AEC00D3680968006810B41842946801EA0401BC
:102AFC002ED0137C03F00303D9B943F008039908D3
:102B0C00013B11740D2B0BD8DFE803F00D071C07EC
:102B1C000A160D0D160A071C070D5369013B53616C
:102B2C005DF8044B704753695DF8044B01335361F6
:102B3C00704743F00403E0E753695DF8044B023B34
:102B4C005361704753695DF8044B0233536170470E
:102B5C00137C03F003030029D1D043F00403CEE728
:102B6C00A48C0020214B9A6CD2E90010D368096820
:102B7C00006810B41842946801EA04012ED0137C4A
:102B8C0003F00303D9B943F008039908013B11740E
:102B9C000D2B0BD8DFE803F00D071C070A160D0DE3
:102BAC00160A071C070D5369013B53615DF8044B72
:102BBC00704753695DF8044B01335361704743F020
:102BCC000403E0E753695DF8044B023B5361704723
:102BDC0053695DF8044B023353617047137C03F067
:102BEC0003030029D1D043F00403CEE7A48C0020CA
:102BFC00214BDA6CD2E90010D3680968006810B474
:102C0C001842946801EA04012ED0137C03F00303EC
:102C1C00D9B943F008039908013B11740D2B0BD85B
:102C2C00DFE803F00D071C070A160D0D160A071C2A
:102C3C00070D5369013B53615DF8044B70475369B1
:102C4C005DF8044B01335361704743F00403E0E734
:102C5C0053695DF8044B023B5361704753695DF84F
:102C6C00044B023353617047137C03F003030029B8
:102C7C00D1D043F00403CEE7A48C0020214B1A6D75
:102C8C00D2E90010D3680968006810B4184294683F
:102C9C0001EA04012ED0137C03F00303D9B943F0ED
:102CAC0008039908013B11740D2B0BD8DFE803F0D6
:102CBC000D071C070A160D0D160A071C070D536984
:102CCC00013B53615DF8044B704753695DF8044B4D
:102CDC0001335361704743F00403E0E753695DF837
:102CEC00044B023B5361704753695DF8044B02334C
:102CFC0053617047137C03F003030029D1D043F0D8
:102D0C000403CEE7A48C0020214B5A6DD2E90010AD
:102D1C00D3680968006810B41842946801EA040189
:102D2C002ED0137C03F00303D9B943F008039908A0
:102D3C00013B11740D2B0BD8DFE803F00D071C07BA
:102D4C000A160D0D160A071C070D5369013B53613A
:102D5C005DF8044B704753695DF8044B01335361C4
:102D6C00704743F00403E0E753695DF8044B023B02
:102D7C005361704753695DF8044B023353617047DC
:102D8C00137C03F003030029D1D043F00403CEE7F6
:102D9C00A48C0020214B9A6DD2E90010D3680968ED
:102DAC00006810B41842946801EA04012ED0137C18
:102DBC0003F00303D9B943F008039908013B1174DC
:102DCC000D2B0BD8DFE803F00D071C070A160D0DB1
:102DDC00160A071C070D5369013B53615DF8044B40
:102DEC00704753695DF8044B01335361704743F0EE
:102DFC000403E0E753695DF8044B023B53617047F1
:102E0C0053695DF8044B023353617047137C03F034
:102E1C0003030029D1D043F00403CEE7A48C002097
:102E2C00214BDA6DD2E90010D3680968006810B440
:102E3C001842946801EA04012ED0137C03F00303BA
:102E4C00D9B943F008039908013B11740D2B0BD829
:102E5C00DFE803F00D071C070A160D0D160A071CF8
:102E6C00070D5369013B53615DF8044B704753697F
:102E7C005DF8044B01335361704743F00403E0E702
:102E8C0053695DF8044B023B5361704753695DF81D
:102E9C00044B023353617047137C03F00303002986
:102EAC00D1D043F00403CEE7A48C0020214B1A6E42
:102EBC00D2E90010D3680968006810B4184294680D
:102ECC0001EA04012ED0137C03F00303D9B943F0BB
:102EDC0008039908013B11740D2B0BD8DFE803F0A4
:102EEC000D071C070A160D0D160A071C070D536952
:102EFC00013B53615DF8044B704753695DF8044B1B
:102F0C0001335361704743F00403E0E753695DF804
:102F1C00044B023B5361704753695DF8044B023319
:102F2C0053617047137C03F003030029D1D043F0A5
:102F3C000403CEE7A48C0020214B5A6ED2E900107A
:102F4C00D3680968006810B41842946801EA040157
:102F5C002ED0137C03F00303D9B943F0080399086E
:102F6C00013B11740D2B0BD8DFE803F00D071C0788
:102F7C000A160D0D160A071C070D5369013B536108
:102F8C005DF8044B704753695DF8044B0133536192
:102F9C00704743F00403E0E753695DF8044B023BD0
:102FAC005361704753695DF8044B023353617047AA
:102FBC00137C03F003030029D1D043F00403CEE7C4
:102FCC00A48C0020214B9A6ED2E90010D3680968BA
:102FDC00006810B41842946801EA04012ED0137CE6
:102FEC0003F00303D9B943F008039908013B1174AA
:102FFC000D2B0BD8DFE803F00D071C070A160D0D7F
:10300C00160A071C070D5369013B53615DF8044B0D
:10301C00704753695DF8044B01335361704743F0BB
:10302C000403E0E753695DF8044B023B53617047BE
:10303C0053695DF8044B023353617047137C03F002
:10304C0003030029D1D043F00403CEE7A48C002065
:10305C00214BDA6ED2E90010D3680968006810B40D
:10306C001842946801EA04012ED0137C03F0030388
:10307C00D9B943F008039908013B11740D2B0BD8F7
:10308C00DFE803F00D071C070A160D0D160A071CC6
:10309C00070D5369013B53615DF8044B704753694D
:1030AC005DF8044B01335361704743F00403E0E7D0
:1030BC0053695DF8044B023B5361704753695DF8EB
:1030CC00044B023353617047137C03F00303002954
:1030DC00D1D043F00403CEE7A48C0020214B1A6F0F
:1030EC00D2E90010D3680968006810B418429468DB
:1030FC0001EA04012ED0137C03F00303D9B943F089
:10310C0008039908013B11740D2B0BD8DFE803F071
:10311C000D071C070A160D0D160A071C070D53691F
:10312C00013B53615DF8044B704753695DF8044BE8
:10313C0001335361704743F00403E0E753695DF8D2
:10314C00044B023B5361704753695DF8044B0233E7
:10315C0053617047137C03F003030029D1D043F073
:10316C000403CEE7A48C0020214B5A6FD2E9001047
:10317C00D3680968006810B41842946801EA040125
:10318C002ED0137C03F00303D9B943F0080399083C
:10319C00013B11740D2B0BD8DFE803F00D071C0756
:1031AC000A160D0D160A071C070D5369013B5361D6
:1031BC005DF8044B704753695DF8044B0133536160
:1031CC00704743F00403E0E753695DF8044B023B9E
:1031DC005361704753695DF8044B02335361704778
:1031EC00137C03F003030029D1D043F00403CEE792
:1031FC00A48C0020214B9A6FD2E90010D368096887
:10320C00006810B41842946801EA04012ED0137CB3
:10321C0003F00303D9B943F008039908013B117477
:10322C000D2B0BD8DFE803F00D071C070A160D0D4C
:10323C00160A071C070D5369013B53615DF8044BDB
:10324C00704753695DF8044B01335361704743F089
:10325C000403E0E753695DF8044B023B536170478C
:10326C0053695DF8044B023353617047137C03F0D0
:10327C0003030029D1D043F00403CEE7A48C002033
:10328C00214BDA6FD2E90010D3680968006810B4DA
:10329C001842946801EA04012ED0137C03F0030356
:1032AC00D9B943F008039908013B11740D2B0BD8C5
:1032BC00DFE803F00D071C070A160D0D160A071C94
:1032CC00070D5369013B53615DF8044B704753691B
:1032DC005DF8044B01335361704743F00403E0E79E
:1032EC0053695DF8044B023B5361704753695DF8B9
:1032FC00044B023353617047137C03F00303002922
:10330C00D1D043F00403CEE7A48C0020224BD3F899
:10331C008020D2E90010D3680968006810B4184204
:10332C00946801EA04012ED0137C03F00303D9B98D
:10333C0043F008039908013B11740D2B0BD8DFE8FF
:10334C0003F00D071C070A160D0D160A071C070DB6
:10335C005369013B53615DF8044B704753695DF849
:10336C00044B01335361704743F00403E0E75369A6
:10337C005DF8044B023B5361704753695DF8044B95
:10338C00023353617047137C03F003030029D1D03F
:10339C0043F00403CEE700BFA48C0020224BD3F8EB
:1033AC008420D2E90010D3680968006810B4184270
:1033BC00946801EA04012ED0137C03F00303D9B9FD
:1033CC0043F008039908013B11740D2B0BD8DFE86F
:1033DC0003F00D071C070A160D0D160A071C070D26
:1033EC005369013B53615DF8044B704753695DF8B9
:1033FC00044B01335361704743F00403E0E7536916
:10340C005DF8044B023B5361704753695DF8044B04
:10341C00023353617047137C03F003030029D1D0AE
:10342C0043F00403CEE700BFA48C0020224BD3F85A
:10343C008820D2E90010D3680968006810B41842DB
:10344C00946801EA04012ED0137C03F00303D9B96C
:10345C0043F008039908013B11740D2B0BD8DFE8DE
:10346C0003F00D071C070A160D0D160A071C070D95
:10347C005369013B53615DF8044B704753695DF828
:10348C00044B01335361704743F00403E0E7536985
:10349C005DF8044B023B5361704753695DF8044B74
:1034AC00023353617047137C03F003030029D1D01E
:1034BC0043F00403CEE700BFA48C0020224BD3F8CA
:1034CC008C20D2E90010D3680968006810B4184247
:1034DC00946801EA04012ED0137C03F00303D9B9DC
:1034EC0043F008039908013B11740D2B0BD8DFE84E
:1034FC0003F00D071C070A160D0D160A071C070D05
:10350C005369013B53615DF8044B704753695DF897
:10351C00044B01335361704743F00403E0E75369F4
:10352C005DF8044B023B5361704753695DF8044BE3
:10353C00023353617047137C03F003030029D1D08D
:10354C0043F00403CEE700BFA48C0020224BD3F839
:10355C009020D2E90010D3680968006810B41842B2
:10356C00946801EA04012ED0137C03F00303D9B94B
:10357C0043F008039908013B11740D2B0BD8DFE8BD
:10358C0003F00D071C070A160D0D160A071C070D74
:10359C005369013B53615DF8044B704753695DF807
:1035AC00044B01335361704743F00403E0E7536964
:1035BC005DF8044B023B5361704753695DF8044B53
:1035CC00023353617047137C03F003030029D1D0FD
:1035DC0043F00403CEE700BFA48C0020224BD3F8A9
:1035EC009420D2E90010D3680968006810B418421E
:1035FC00946801EA04012ED0137C03F00303D9B9BB
:10360C0043F008039908013B11740D2B0BD8DFE82C
:10361C0003F00D071C070A160D0D160A071C070DE3
:10362C005369013B53615DF8044B704753695DF876
:10363C00044B01335361704743F00403E0E75369D3
:10364C005DF8044B023B5361704753695DF8044BC2
:10365C00023353617047137C03F003030029D1D06C
:10366C0043F00403CEE700BFA48C0020224BD3F818
:10367C009820D2E90010D3680968006810B4184289
:10368C00946801EA04012ED0137C03F00303D9B92A
:10369C0043F008039908013B11740D2B0BD8DFE89C
:1036AC0003F00D071C070A160D0D160A071C070D53
:1036BC005369013B53615DF8044B704753695DF8E6
:1036CC00044B01335361704743F00403E0E7536943
:1036DC005DF8044B023B5361704753695DF8044B32
:1036EC00023353617047137C03F003030029D1D0DC
:1036FC0043F00403CEE700BFA48C0020224BD3F888
:10370C009C20D2E90010D3680968006810B41842F4
:10371C00946801EA04012ED0137C03F00303D9B999
:10372C0043F008039908013B11740D2B0BD8DFE80B
:10373C0003F00D071C070A160D0D160A071C070DC2
:10374C005369013B53615DF8044B704753695DF855
:10375C00044B01335361704743F00403E0E75369B2
:10376C005DF8044B023B5361704753695DF8044BA1
:10377C00023353617047137C03F003030029D1D04B
:10378C0043F00403CEE700BFA48C002038B52DED28
:10379C00028B02710446154AB0EE408A03610D4655
:1037AC0002600121DDE90632C260D8B2A36002F0EA
:1037BC004BFC0121207B02F047FC0121207C02F014
:1037CC0043FCB5EEC08AF1EE10FA04DDB0EE480A07
:1037DC00207C02F03DFF284603F02AF8207C0021D3
:1037EC0002F0D0FE2046BDEC028B38BD0408002050
:1037FC000B4610B5272800F29B81DFE810F09001F2
:10380C0086017D0174016B01620159015001470170
:10381C003E0135012C0123011A0111010801FF00A1
:10382C00F600ED00E400DB00D200C900C000B700D8
:10383C00AE00A5009C0093008A00810078006E0009
:10384C0064005A00500046003C0032002800B94C7D
:10385C000422B9492720C4F89C3002F02FFC012027
:10386C0010BDB44C0422B5492620C4F8983002F09F
:10387C0025FC012010BDAF4C0422B1492520C4F811
:10388C00943002F01BFC012010BDAA4C0422AD495F
:10389C002420C4F8903002F011FC012010BDA54C7E
:1038AC000422A9492320C4F88C3002F007FC012023
:1038BC0010BDA04C0422A5492220C4F8883002F087
:1038CC00FDFB012010BD9B4C0422A1492120C4F812
:1038DC00843002F0F3FB012010BD964C04229D496C
:1038EC002020C4F8803002F0E9FB012010BD914C7F
:1038FC00042299491F20E36702F0E0FB012010BD70
:10390C008C4C042295491E20A36702F0D7FB0120A2
:10391C0010BD884C042292491D20636702F0CEFB37
:10392C00012010BD834C04228E491C20236702F019
:10393C00C5FB012010BD7F4C04228B491B20E36684
:10394C0002F0BCFB012010BD7A4C042287491A20DE
:10395C00A36602F0B3FB012010BD764C042284490F
:10396C001920636602F0AAFB012010BD714C0422E1
:10397C0080491820236602F0A1FB012010BD6D4C7C
:10398C0004227D491720E36502F098FB012010BD4D
:10399C00684C042279491620A36502F08FFB0120A4
:1039AC0010BD644C042276491520636502F086FB39
:1039BC00012010BD5F4C042272491420236502F0D3
:1039CC007DFB012010BD5B4C04226F491320E36486
:1039DC0002F074FB012010BD564C04226B491220DE
:1039EC00A36402F06BFB012010BD524C0422684909
:1039FC001120636402F062FB012010BD4D4C0422C7
:103A0C0064491020236402F059FB012010BD494C7D
:103A1C00042261490F20E36302F050FB012010BD2A
:103A2C00444C04225D490E20A36302F047FB0120A5
:103A3C0010BD404C04225A490D20636302F03EFB3A
:103A4C00012010BD3B4C042256490C20236302F08C
:103A5C0035FB012010BD374C042253490B20E36287
:103A6C0002F02CFB012010BD324C04224F490A20DD
:103A7C00A36202F023FB012010BD2E4C04224C4902
:103A8C000920636202F01AFB012010BD294C0422AC
:103A9C0048490820236202F011FB012010BD254C7F
:103AAC00042245490720E36102F008FB012010BD08
:103ABC00204C042241490620A36102F0FFFA0120A8
:103ACC0010BD1C4C04223E490520636102F0F6FA3D
:103ADC00012010BD0422174C3A491046236102F014
:103AEC00EDFA012010BD134C042237490320E3608A
:103AFC0002F0E4FA012010BD0E4C042233490220DE
:103B0C00A36002F0DBFA012010BD04460948042230
:103B1C002F494360012002F0D1FA204610BD054C1C
:103B2C0004222C490020236002F0C8FA012010BDA9
:103B3C00002010BDA48C00208D180000FD17000083
:103B4C006D170000DD1600004D160000BD150000BD
:103B5C002D1500009D1400001114000085130000A9
:103B6C00F91200006D120000E11100005511000067
:103B7C00C91000003D100000B10F0000250F00001F
:103B8C00990E00000D0E0000810D0000F50C0000D8
:103B9C00690C0000DD0B0000510B0000C50A000091
:103BAC00390A0000AD090000210900009508000049
:103BBC00090800007D070000F10600006506000002
:103BCC00D90500004D050000C104000035040000BB
:103BDC00A90300001D0300002DE9F04182B004464A
:103BEC000F4616469DF820C01D46BCF1000F01D0B3
:103BFC0017460E460221384602F026FA02213046BC
:103C0C0002F022FA25493B012548DFF89CC051F807
:103C1C00038001EB07132560D3F80CE001EB0613CE
:103C2C00C4F80C80C4F814E0DA683301C9580023D6
:103C3C00A26123621B4B45681B682161ACFB033CF2
:103C4C004FF4FA634FEA9C4C03FB0CFC43685B1B80
:103C5C009C45FBD8D8F80030384609681EEA030F9B
:103C6C0014BF012300230A4204F10C0118BF43F0D6
:103C7C00020301912377FFF7BBFD03460199304600
:103C8C0084F82430FFF7B4FD94F824200346204632
:103C9C00134484F8243002B0BDE8F081A40D002058
:103CAC00001000E07C20002083DE1B43000000009D
:103CBC002DE9F04701210D20694C2DED028B84B0CC
:103CCC0002F0C2F967481BF03BFE04F5C07001F02E
:103CDC0097FA04F5C07001F0A9FAA8B903240121E0
:103CEC000D2002F075F9962002F0F4F80D20002159
:103CFC0002F06EF9962002F0EDF8013CEFD14FF492
:103D0C007A7002F0E7F8E9E704F2871001F008FC9A
:103D1C0004F2871001F01AFC0028DFD0D4F85C31D3
:103D2C00002B4EDD002504F287169FED4B8B0DF119
:103D3C000E0303AA0DF10A01304601F021FCBDF976
:103D4C000A3094ED5F1A322002EE103ABDF90C30B5
:103D5C00B7EEC11A013503EE103ABDF90E30B8EECC
:103D6C00C22B07EE103AB8EEC33BB8EEC77B22EE7F
:103D7C00012B23EE013B27EE017B22EE082B23EED9
:103D8C00083B27EE087B94ED584B94ED5A5B94ED71
:103D9C005C6B34EE024B35EE035B36EE076B84ED59
:103DAC00584B84ED5A5B84ED5C6B84ED6A2B84ED8F
:103DBC006C3B84ED6E7B02F08DF8D4F85C319D4247
:103DCC00B5DB07EE903A284E284D40F2EE28B8EEBF
:103DDC00E77ADFF8B0903768DFF8ACA0B7EEC77AB7
:103DEC0094ED585B94ED5A6B94ED5C3B85EE074B70
:103DFC0086EE075B83EE076B84ED584B84ED5A5BC4
:103E0C0084ED5C6B03F0ACFE2B78C3B199F80030F9
:103E1C00DB0714D53368DAF800209B1A0E2B0ED969
:103E2C00134C1448144B154A1549CDE900040120D4
:103E3C0009F07AFE04B0BDEC028BBDE8F087336864
:103E4C002A78DB1B2AB1B3F5FA6FE9D803F088FEA8
:103E5C00D8E74345FAD9E3E7399D52A246DF913FB3
:103E6C00E082002090200020949500208D96002068
:103E7C00512E0000452E0000412E00003D2E00006A
:103E8C00802000208C9600201C96002038B5134D05
:103E9C00134C284606F044FD00210BF05FF9214637
:103EAC00104807F0F5FB21460F4807F0F1FB2146BF
:103EBC000E4807F0A7FE204607F0E8F90C4808F07A
:103ECC008DFA0C4806F018F9284606F01DFC0D205A
:103EDC00012102F07DF8012038BD00BF5C95002067
:103EEC0068940020989400202C930020AC9500201E
:103EFC00F48E00204882002070B5C54AC54D12686A
:103F0C002B689B1AC72B2DED048B88B000F2C08157
:103F1C00C14CC24894ED0A1B94ED026B94ED007BEE
:103F2C00BF4CB7EEC11BF7EEC60BB7EEC70B01F0DB
:103F3C0017FC94F82430CDED050A012B8DED040A05
:103F4C008DED061ACDED071A40F2EB8172B6266A9A
:103F5C0062B602F013F86368D4ED006AC31A6060AD
:103F6C00B8EEE66B07EE903AA368A660B8EE677BF6
:103F7C00F61AAC4C9FEDA24B94F8243087EE045B00
:103F8C0007EE906A012BB8EEE77B87EE064B84EECA
:103F9C00058BB7EEC88B40F2B18172B6266A62B659
:103FAC0001F0ECFF636894ED006AC31A6060B8EE30
:103FBC00C66B07EE903AA368A660B8EE677BF61A5C
:103FCC00994C9FED8F4B94F8243087EE045B07EEF1
:103FDC00906A012BB8EEE77B87EE064B84EE057BEF
:103FEC00F7EEC78B40F2768172B6266A62B601F0A4
:103FFC00C5FF63686060C31A07EE903AA368A660B9
:10400C00B8EE677BF61A9FED7E6B87EE065B94ED40
:10401C00006A07EE906A854C94F82430B8EEE77B82
:10402C00B8EEC66B012B87EE064B84EE059BB7EE04
:10403C00C99B40F23B8172B6266A62B601F09EFFC4
:10404C0063686060F0EE480AC01AA368A66007EEC9
:10405C00900AF61A9DED040AB8EE677B74489FED42
:10406C00686B87EE065B94ED006A07EE906A714E02
:10407C00B8EEE77BB8EEC66B87EE064B84EE057B9D
:10408C00F7EEC79B01F01CFDFDEEC07B337917EEFC
:10409C00904A03B16442002C40F39380307A0121A2
:1040AC0001F096FF307B002101F092FF2146307C1D
:1040BC0002F068FAF0EE680A9DED050A5E4E5F4864
:1040CC0001F0FEFCFDEEC07B337917EE904A03B194
:1040DC006442002C40F3CE80307A012101F078FF4D
:1040EC00307B002101F074FF2146307C02F04AFA4B
:1040FC00F0EE490A9DED060A514E524801F0E0FCE3
:10410C00FDEEC07B337917EE904A03B16442002C6C
:10411C0040F3A280307A012101F05AFF307B00215C
:10412C0001F056FF2146307C02F02CFAF0EE690AC1
:10413C009DED070A444E454801F0C2FCFDEEC07BE4
:10414C00337917EE904A03B16442002C48DD307A83
:10415C00012101F03DFF307B002101F039FF2146A8
:10416C00307C02F00FFAB0EE480A2C48B0EE491A37
:10417C00F0EE680AF0EE691A01F000FB344A2B6885
:10418C00F0EE411A1168B0EE601A1360F0EE400ABE
:10419C005B1A8DED010A2F4807EE903A8DED021A4D
:1041AC00CDED031AB8EE677B9FED175B87EE056BC1
:1041BC00B7EEC60B08B0BDEC048BBDE8704001F047
:1041CC00DBBB00F0CB80307A002101F001FF307BAB
:1041DC00012101F0FDFE6142307C02F0D3F969E768
:1041EC0000F0B280307A002101F0F2FE307B012128
:1041FC0001F0EEFE6142307C02F0C4F9B3E700BF7F
:10420C0000000000389C8C410000000000408F40F2
:10421C009C94002094950020488C0020449300200E
:10422C0088930020C4930020009400203C9400202C
:10423C00E085002074930020B093002010860020AD
:10424C00EC930020408600202894002070860020EB
:10425C00A0940020688900207BD0307A002101F0E6
:10426C00B7FE307B012101F0B3FE6142307C02F0DD
:10427C0089F95BE777D0307A002101F0A9FE307B19
:10428C00012101F0A5FE6142307C02F07BF92FE7A1
:10429C0000220023A64C01210D20C4E90023C4E90F
:1042AC000223C4E90A2301F093FE32E672B62269B6
:1042BC00E3681B68116862691A40A369194200F02F
:1042CC00DB80237F03F003030AB143F0040343F0C4
:1042DC000803D7E072B62269E3681B68116862694B
:1042EC001A40A369194200F09B80237F03F003035B
:1042FC000AB143F0040343F0080397E072B6E36895
:10430C0062691B681A4023691968A36919425BD05A
:10431C00237F03F003030AB143F0040343F00803C3
:10432C0058E072B6D4E9033162691B6809681A4017
:10433C00A36919421CD0237F03F003030AB143F095
:10434C00040343F0080319E02146307C02F01AF90B
:10435C0009E72146307C02F015F9E7E62146307C6E
:10436C0002F010F9A6E62146307C02F00BF9BFE60C
:10437C00237F03F003030AB143F004039A08013BC3
:10438C00266A22770D2B3FF6E3AD01A252F823F0FB
:10439C008B26000085260000A32600008526000041
:1043AC00E12000009D2600008B2600008B260000DB
:1043BC009D260000E120000085260000A3260000B9
:1043CC00852600008B260000237F03F003030AB12F
:1043DC0043F004039A08013B266A22770D2B3FF623
:1043EC00DEAD01A252F823F07F26000079260000F2
:1043FC0097260000792600002F210000912600004E
:10440C007F2600007F260000912600002F2100004F
:10441C007926000097260000792600007F260000F0
:10442C00237F03F003030AB143F004039A08013B12
:10443C00266A22770D2B3FF6D9AD01A252F823F054
:10444C00732600006D260000BB2600006D260000C0
:10445C007D210000B52600007326000073260000A5
:10446C00B52600007D2100006D260000BB26000053
:10447C006D26000073260000237F03F003030AB1AE
:10448C0043F004039A08013B266A22770D2B3FF672
:10449C00D4AD01A252F823F067260000612600007B
:1044AC00AF26000061260000CB210000A9260000E9
:1044BC006726000067260000A9260000CB2100001B
:1044CC0061260000AF260000612600006726000070
:1044DC00013E2662B1E501362662AEE5013E26625A
:1044EC0084E50136266281E5013E266257E50136F8
:1044FC00266254E5013E26622AE50136266227E54E
:10450C00023E26624BE50236266248E5023E2662F2
:10451C001EE5023626621BE5023E26628DE502365A
:10452C0026628AE5023E266260E5023626625DE579
:10453C00488C0020000000002DE9F047ADF5856D9A
:10454C00994C9A49684601F0A9F94FF432726946C0
:10455C00974801F03DFEBAABB4AA0DF2CE2104F29D
:10456C00871001F00DF8BDF9CE3294ED5F0A01EE23
:10457C00103ABDF9D032B7EEC00AB8EEC11B03EE4B
:10458C00103ABDF9E832B8EEC33B21EE001B07EE42
:10459C00103AB8EEC77B23EE003B27EE007B9FED75
:1045AC007C2B94ED584B9FED7C0B21EE021B23EEE4
:1045BC00023B27EE027B31EE444B94ED5A5B94EDBB
:1045CC005C6BB4EEC04B33EE455B37EE466BF1EEF5
:1045DC0010FA84ED6A1B84ED6C3B84ED224B84ED68
:1045EC006E7B84ED245B84ED266B07DD9FED6C7B8D
:1045FC00B4EEC74BF1EE10FA00F1C3809FED667B71
:10460C00B4EEC75BF1EE10FA07DD9FED657BB4EEFF
:10461C00C75BF1EE10FA00F1AF809FED5F7BB4EE5B
:10462C00C76BF1EE10FA0ADD9FED5D7BB4EEC76B44
:10463C00F1EE10FA03D500220023C4E9262394EDF1
:10464C00567ABAAB0DF2CE22B3A9B7EEC77A594857
:10465C00594DDFF87C81DFF8589184ED287B84ED8F
:10466C00307B84ED387B00F0F5FDBDF9CC3294ED58
:10467C005E3A0DF5347C05EE103ABDF9CE32B7EE4C
:10468C00C33A94ED524A06EE103ABDF9E832B8EE50
:10469C00C55BE24607EE103AB8EEC66BB7EEC44AFD
:1046AC000DF53A7EB8EEC77B25EE035B774626EE1A
:1046BC00036B27EE037B25EE045B26EE046B27EEE3
:1046CC00047B84ED645B84ED666B0FCD84ED687BBD
:1046DC00ACE80F0095E80300A5F1B8068CE80300E0
:1046EC00BAE80F00AEE80F009CE803008EE8030068
:1046FC000FCF94ED557A0FC6B7EEC77A4FF4A07270
:10470C009EE8030084ED407B86E80300A5F5CC71A0
:10471C00BAA884ED487B84ED507B01F059FDBAA911
:10472C004FF4A072404601F053FD244A2448D2E9CC
:10473C00003100684FF47A72C0184FF0000341F159
:10474C00000113F01BFF1F4B4146C9F8000003FB8F
:10475C0002F2C8F80000C9F80420C8F804200022AE
:10476C00194806F0EFFF0022494618480DF5856DF3
:10477C00BDE8F04706F0E6BF00220023C4E924237D
:10478C004BE700220023C4E9222337E7AFF3008074
:10479C00399D52A246DF913F7B14AE47E17A84BF2C
:1047AC007B14AE47E17A843FE082002068890020C8
:1047BC00A08600206084002070840020408C0020A3
:1047CC009495002040420F002C93002098940020D8
:1047DC00A084002030B108B5FFF78EFBBDE808407F
:1047EC00FFF7AABE704700BF08B501210D2001F0EC
:1047FC00EFFB962001F06EFB00210D2001F0E8FB91
:10480C00962001F067FB01210D2001F0E1FB9620C1
:10481C0001F060FB00210D2001F0DAFB962001F085
:10482C0059FB4FF47A7001F055FBDEE700000000F5
:10483C0030B5ABB0404C24A808F02AFD0DF1900C1B
:10484C00BCE80F000FC40022DCF8001023463B48E4
:10485C0043F81019114605F00DFF002866D1374BAF
:10486C00374A3849384806F009F800285ED104F078
:10487C0063FF364B02463449354806F0CBF8002826
:10488C0054D10BF015FA334B02462F49324806F03F
:10489C00C1F800284AD103F023FA304B02462A49CA
:1048AC002F4806F0F1F8002840D12E4823490090FB
:1048BC002D481FA3D3E9002306F020F9002835D199
:1048CC0002A805F093FB882202A9284801F080FC7D
:1048DC00A4F1100302221949244805F091FB044667
:1048EC0020BB234B234A1E492048009405F038FC7A
:1048FC00E0B91D491D4805F071FCB8B91E4B0A20E2
:10490C001D680AF019FC88B90AF0FAFB451B0A4627
:10491C001A4C4FF00D004FF0010162F10002C4E996
:10492C00005201F055FB01202BB030BDFFF75CFFAE
:10493C00002D310100000000D08E00205C9500207D
:10494C005C150020CC06002068940020E0060020B6
:10495C0098940020F00600202C930020FC060020E8
:10496C00AC95002065290000F48E002048820020C0
:10497C00C9010000488C002094950020408C002038
:10498C0070B53B4D2C78032C07D8DFE804F02C26AF
:10499C000702FFF77BFA00232B7070BD354ED6E96A
:1049AC000023B3F1FF3F08BFB2F1FF3F55D004F035
:1049BC0091FED6E90023801A61EB0301C92871F13D
:1049CC00000138DA2B78022BE7D12B4826A3D3E948
:1049DC000023BDE8704005F01BBEFFF729FF28B38C
:1049EC0002232B7070BD254CD4E90023B3F1FF3F9B
:1049FC0008BFB2F1FF3F2BD004F06CFED4E90023CA
:104A0C00801A61EB030140F2F513984271F1000139
:104A1C00C3DB0121642009F09DF8B0FA80F0400955
:104A2C00287004F057FEC4E9000170BD2870BDE881
:104A3C007040FFF72BBA0121642009F08BF8002895
:104A4C0018BF03242C7004F045FEC6E90001B9E739
:104A5C0004F040FEC4E90001CEE704F03BFEC6E9D9
:104A6C000001A4E7AFF3008000E1F50500000000B1
:104A7C0088960020501F002048820020481F0020EC
:104A8C0070B501258AB0002440F2663300951722D8
:104A9C0016216748FFF7A0F8009440F26633152200
:104AAC0014216448FFF798F8009440F26633102202
:104ABC0011216148FFF790F8009440F266330F2201
:104ACC000E215E48FFF788F803229FED5D0A23460E
:104ADC000A215C488DED020A06AECDE900522A4649
:104AEC00FEF754FE052304229DED020A01930A21D0
:104AFC00009206232A465448FEF748FE0A210B234F
:104B0C002A469DED020A08255048CDE900130C23D6
:104B1C00FEF73CFE092322460A219DED020A019371
:104B2C00072300954A48FEF731FEDFED4A1A9FED48
:104B3C004A1AB6EE002ADFED490A9FED490A4948A8
:104B4C00CDED051A8DED041ACDED030A8DED020A9B
:104B5C0000F0A8FFDDED051AB6EE002A9DED041A53
:104B6C00DDED030A9DED020A3F4800F09BFFDDEDF1
:104B7C00051A9DED041AB6EE002ADDED030A9DED33
:104B8C00020A3A4800F08EFFDDED051A9DED041A7D
:104B9C00B6EE002ADDED030A9DED020A344800F062
:104BAC0081FFB1EE0C1AF2EE020A9FED322ADFED14
:104BBC00321A96229FED310A0221314800F000FD95
:104BCC00304800F03FFE304C304B3046304A04F158
:104BDC001005304900922822C4F85431C4F85831D9
:104BEC002D4BC4F85C21C4F848312C4A2C4B216065
:104BFC00C4F84C21C4F8503195E80E0004F040FD87
:104C0C00284B96E8070085E8070027494FF06E52BD
:104C1C0004F5C070C4F87C312160C4F8782100F030
:104C2C00EBFA04F287100AB0BDE8704000F074BCD7
:104C3C0088930020C4930020009400203C94002012
:104C4C0000409C4674930020B0930020EC9300200D
:104C5C0028940020CDCC4C3F9A99193F00C07F443A
:104C6C00002080C4E08500201086002040860020B3
:104C7C00708600209A99193E0AD7A33DCDCCCC3E24
:104C8C004493002068890020E0820020ACC52737BF
:104C9C00C006002090070020C3F51C41CDCCCC3DB4
:104CAC00BD37863535788E3DCC0700200120704706
:104CBC0001207047D0F88C0203685B68184700BF6E
:104CCC00D0F88C02836000F053BF00BF0020704707
:104CDC0090F8A32090F8A200101A704790F8A23018
:104CEC0090F8A3209A4205D95A1C034480F8A220BC
:104CFC00987E70474FF0FF30704700BF90F8A2309D
:104D0C0090F8A3209A4202D91844807E70474FF045
:104D1C00FF307047704700BF0346B0F8300178B1E0
:104D2C0093F82F21882A03D9012200205A6070475A
:104D3C0002F1010C01201A4483F82FC182F8A5104E
:104D4C00704700BF38B5B0F830410CB9204638BDBB
:104D5C0090F82F310546C3F18904A2420DD81446B0
:104D6C0005F1A5002246184401F032FA95F82F31CE
:104D7C002046234485F82F3138BD01224260EFE7ED
:104D8C002DE9F04FD0F814A01524017E8146437E06
:104D9C0083B00AEB0111384A0AEB0313374F097A37
:104DAC0093F8283002EB01150901E86852F80180EC
:104DBC0002EB0311D5F804B01B01CE68D558CBF823
:104DCC000040C8F88400D8F804304A6803432C49E2
:104DDC000192C8F804301460C5F884606B683343E2
:104DEC006B60284B4C683A68A3FB0232920C02EBC6
:104DFC00820252004B681B1B9A42FBD84FF0090CE5
:104E0C001F4ADFF880E0D8F80830034202D0AB68C4
:104E1C0033422FD1C5F8886054683968AEFB013134
:104E2C00890C01EB810153681B1B9942FBD8C5F817
:104E3C00846054683968AEFB0131890C01EB810147
:104E4C0053681B1B9942FBD8BCF1010CDBD16046AB
:104E5C0099F81830019A0AEB0313DB68CBF8003091
:104E6C0099F819300AEB031ADAF82C30136003B0F6
:104E7C00BDE8F08F0120EBE7A40D00207C20002082
:104E8C00001000E083DE1B430E4A10B51168046964
:104E9C0005E0DB0107D413685B1A102B08D8636993
:104EAC0013F0007FF5D14FF4FE430120636110BD78
:104EBC00FFF766FF0028FAD04FF4FE430120636130
:104ECC00F5E700BF949500202DE9F04790F82FA14D
:104EDC000569BAF1000F4FD081468846FFF7D4FF21
:104EEC00002849D0374E0024376818E06B69190543
:104EFC0051D4DA0455D4580559D4990441D43268A4
:104F0C00D21B322A3DD8544507D9EA6D520704D139
:104F1C009B0555D4B8F1000F52D002F021FE544538
:104F2C00E4D8EA6D500702F00703DFD413E099F8D8
:104F3C00A5200133022442F48062042B2A661ED081
:104F4C008A4503F1010309EB01020ED992F8A52061
:104F5C00042B2A66CAD00121002CE8D0214601334B
:104F6C0001348A4509EB0102F0D8B8F1000FBDD02D
:104F7C004FF400732B66B9E70420BDE8F0870124D9
:104F8C00B4E72B694FF40072042043F440732B6197
:104F9C002A66BDE8F0872B69042043F440732B612B
:104FAC00EBE72B69052043F440732B61E5E72B6994
:104FBC004FF40072022043F440732B612A66DCE745
:104FCC000020DAE7949500202DE9F84F83460C4633
:104FDC0015461F46D0F810A0FFF756FF002800F02A
:104FEC009E806100012DDFF83C8140F20146CBB27E
:104FFC004FF0000138BF0125D8F800900C461E4335
:10500C00ABF8A21020E09BF8A330872B3FD9DAF83D
:10501C00142010055AD412F4105F70D1D8F8003057
:10502C00A3EB0903322B6AD89BF8A330AB4209D30C
:10503C00022C07D9DAF85C30590703D193054BD40D
:10504C00002F49D002F08CFD022CDCD8DAF85C3051
:10505C0003F007025B07D6D4681E224440F480702C
:10506C004CB9CAF860600134131B032BCBD8022C4B
:10507C00C9D8002CF5D0012C37D01FB14FF40073D8
:10508C00CAF860309BF8A3300324872BBFD8DAF81A
:10509C005C2012F4E02FC2F3024CB8D0591C9C4493
:1050AC001933C9B25FFA8CFC5BFA83F3DAF870003F
:1050BC004A1C61458BF8A310D1B203F8010FA6D09E
:1050CC008929F3D1DAF814201005A4D5DAF81030B8
:1050DC0043F44073CAF81030DAF85C3013F4E02F64
:1050EC0006D19BF8A300BDE8F88FCAF86000BAE7B8
:1050FC00DAF8103043F40073CAF81030F1E7DAF83C
:10510C0010304FF4007243F44073CAF81030CAF8F0
:10511C006020DAF85C3013F4E02FE2D0E8E70420EA
:10512C00BDE8F88F94950020F8B506690446D6F8CA
:10513C00145115F4706301D0C6F81431A8070BD5BF
:10514C00D6F8702111043DD50023012184F8A2303A
:10515C00234484F8A3109A76EA0710D594F830719A
:10516C00F7B194F82E7194F82F31BB4226D97B1CE1
:10517C00274484F82E3197F8A530C6F86031AB057A
:10518C000DD594F8A30018B1D4F83C3103B198476D
:10519C000023A4F8A230A4F82E3184F83031F8BDE5
:1051AC00D4F8383103B19847002384F82E31012309
:1051BC0084F8303194F82F31BB42D8D80023C6F88C
:1051CC006031DCE794F8A330872BC5D8591CC9B2E1
:1051DC00BEE700BF0148FFF7A7BF00BF902000202B
:1051EC000148FFF7A1BF00BFD02100200148FFF705
:1051FC009BBF00BF1023002053230370704700BFD8
:10520C0010B5044600222D21007800F0EDF80123A2
:10521C0004222D21207800F003F9207801230322A9
:10522C002D21BDE8104000F0FBB800BF0246084B32
:10523C0000211B8810B5044612F8010B00F0ACF8E5
:10524C006078A0F1E500B0FA80F0400910BD00BF15
:10525C009E360020F0B516460C4A83B01D461288C7
:10526C00034604460F460092322113F8010B062226
:10527C0000F00EF8B4F801303B80B4F80330338002
:10528C00B4F805302B8003B0F0BD00BF9E36002073
:10529C002DE9F04FDFF8FC902DED028B85B0D9F89D
:1052AC0000A0BDF840600192002A6FD01F464FF05D
:1052BC0000084300882A08EE100A08EE901ADBB2A8
:1052CC00A8BF8822324C45464FF0010B0293039243
:1052DC00029B18EE901A204684F830B184F8A53061
:1052EC0084F82FB1FFF718FD01212046FFF7ECFDE4
:1052FC00029B18EE101A204684F8A530019B84F806
:10530C0030B1A3EB0802012384F82FB1872AD4BF54
:10531C00D2B28822FFF758FE94F8A32094F8A2305A
:10532C009A4218D0581C04EB030C2EB1D9F800107B
:10533C00A1EB0A01B1420ED29A4225D99CF81A303F
:10534C0084F8A2007B55691C94F8A32094F8A23031
:10535C004DB29A42E6D1039B9844019B5FFA88F8C0
:10536C009845B5D356B1D9F80030A3EB0A03B34234
:10537C0004D3019B9D42B8BF4FF0FF35284605B0C2
:10538C00BDEC028BBDE8F08FFF23DBE7019DE9E765
:10539C0090200020949500209446012210B51C46C4
:1053AC0082B063460094FFF773FF02B010BD00BFDC
:1053BC0030B585B01D46BDF824400DF10F030094A7
:1053CC0014460122FFF764FF60B10121621B9DF8B6
:1053DC000F4001FA05F30A44013B9340234013416B
:1053EC00089A137005B030BD70B501250B4C1646EC
:1053FC00A84084F8305184F82F5184F8A500204639
:10540C00FFF78AFC31462046FFF786FC29462046EA
:10541C00FFF75AFDB0FA80F0400970BD90200020D3
:10542C002DE9F0411E461A4B84B014461B8801220C
:10543C000546884600930DF10F03FFF729FF012362
:10544C0006B39DF80F60A34046EA0302D6B20127CB
:10545C00104C4146BD40204684F8307184F8A5506C
:10546C0084F82F71FFF758FC31462046FFF754FCA7
:10547C0039462046FFF728FDB0FA80F0400904B009
:10548C00BDE8F0819DF80F60A34026EA0306DEE735
:10549C009E360020902000202DE9F0411C461C4B2C
:1054AC0084B015461B8801220646884600930DF1F0
:1054BC000F039DF82870FFF7EBFE30B32D1B760021
:1054CC004146013507FA05F3012707FA04F4DBB26C
:1054DC00013CAC409DF80F50234025EA04050D4CCF
:1054EC001D43204684F8A56084F8307184F82F7130
:1054FC00FFF712FC29462046FFF70EFC39462046E2
:10550C00FFF7E2FCB0FA80F0400904B0BDE8F0818E
:10551C009E3600209020002068230370704700BF47
:10552C0070B5032582B0044602230095042216218F
:10553C0001260078FFF7B0FF2B4602223E2120788F
:10554C000096FFF7A9FF02B070BD00BF30B50B4A43
:10555C00044683B006231088254600211A46019084
:10556C0015F8010B0095FFF723FF6078A0F13400CC
:10557C00B0FA80F0400903B030BD00BF9E36002069
:10558C00F0B516460D4A83B01D46128803460446F4
:10559C000F4600921D2113F8010B0622FFF778FE2F
:1055AC00B4F801305BBA3B80B4F803305BBA33809B
:1055BC00B4F805305BBA2B8003B0F0BD9E360020EA
:1055CC009FED176BB7EEE17A01700139B5EEC01A99
:1055DC0080ED022A27EE067B012906EE902A94BF65
:1055EC0004230223F1EE10FA4361B7EEC77B80ED82
:1055FC00047A10D4B4EE601AF1EE10FA30FE811A6F
:10560C00C1EE207AF8EEE66A67EEA67A27EE800AFB
:10561C0080ED010A70479FED041AF1E7AFF30080AB
:10562C00182D4454FB2109400000000090ED026A43
:10563C00B6EE002BB7EEC13ADFED484AB7EEC66ABC
:10564C0090ED045A20EEA44A88B020EE240A90ED86
:10565C00017A26EE026BC4EE055A26EE036BC0EE01
:10566C00057AB7EEC66BB5EE401A26EE246AF1EE5B
:10567C0010FAF0EEE54AC6EE056AB0EEE74A74EEB3
:10568C00844AB0EEE66A36EE046A04D1B4EE647A6B
:10569C00F1EE10FA54D9F5EE400AF1EE10FA04D1FD
:1056AC00B4EE467AF1EE10FA51D937EEE56AF1EE26
:1056BC00471A36EE660AB4EEE10AF1EE10FA3CD463
:1056CC00B4EE407AF1EE10FA48BFB0EE470A37EE6E
:1056DC00A51A71EE260AF4EEE10AF1EE10FA29D4BD
:1056EC00B4EE607AF1EE10FA48BFF0EE470A31EEF4
:1056FC00661AB4EEE11AF1EE10FA18D4B4EE417A4F
:10570C00F1EE10FA48BFB0EE471A76EE267AF4EEB8
:10571C00E17AF1EE10FA08D4B4EEE77AF1EE10FA71
:10572C0054BFF0EE671AF0EE471A08B07047B0EEAF
:10573C00611AEAE7F0EE610AD9E7B0EE610AC6E752
:10574C0087EE246A67EE867A65EE865AADE787EEB9
:10575C00065A67EE857A66EE856AA6E70000704207
:10576C00037884B0DFED047A012B98BFF0EE670A62
:10577C0004B0FFF75BBF00BF00000000037830EE01
:10578C00207A88B013B337EE017AD0ED057A9FED0D
:10579C002B6A70EEC00AF8EEE77AD0ED046A37EEA9
:1057AC00217A022BC7EE275A85EE860A20EE260AAE
:1057BC003ED130EE817A30EEC11A37EE617AC7EE07
:1057CC00275AC5EE860A60EEA60A17E09FED1C6A02
:1057DC0030EEC01AD0ED057A37EE067ADFED175AA7
:1057EC00F8EEE77AD0ED046AF0EE461AF0EE460ACF
:1057FC0087EE276A86EE250A20EE260A71EE811ABC
:10580C00DFED0E5A90ED027AB6EE004B81EEA75A00
:10581C00B7EEC77A27EE047B85EE256A26EE266A5C
:10582C00B7EEC66A86EE071BB7EEC11B08B0704711
:10583C0030EEC11ADFED020AE0E700BF0000704253
:10584C0000000000F0B587B0002300F10807114AF2
:10585C0002AD04460092C0F8C83204F11406C0F838
:10586C00CC32C0F8D032284697E80E0003F008FF7F
:10587C00094B009395E8070087E80700284696E84F
:10588C000E0003F0FDFE95E8070086E807002046B1
:10589C0007B0F0BD4C0700205407002010B504469B
:1058AC004FF4327200F094FC204610BD10B5B7EEE8
:1058BC00C11A0C462DED0A8BB6EE00ABB0EE608A29
:1058CC00B0EE409A21EE0ABBB7EEC88AB7EEC99A81
:1058DC0028EE0A8B29EE0A9BB0EE4B0B11F024FB41
:1058EC00B0EE407BB0EE4B0BF7EEC7BB11F098FF60
:1058FC00B7EEC0BBB0EE480B11F016FBB0EE40CBD0
:10590C00B0EE480B11F08CFFB7EEC08BB0EE490B2C
:10591C0011F00AFBB0EE407BB0EE490BB7EECCCBEE
:10592C00F7EEC78B11F07CFF6BEE087AF7EEC06BCD
:10593C002BEE888A2BEE8C7A67EEA65A28EE286A14
:10594C0068EEE77A2BEE0CBA26EEC88AE7EE285AF8
:10595C00E7EE267AB0EE467AABEE288AABEE267AE4
:10596C00C4ED005AC4ED017A84ED038ABDEC0A8BB8
:10597C0084ED027A10BD00BF10B52DED088B90EDB3
:10598C00B48A84B0B0EE409A0446B0EE480AF0EE09
:10599C0060AAF0EE418AF0EE619A11F045FEB0EE8D
:1059AC0040BAB0EE480A11F03BFD68EEC07A6BEEDF
:1059BC00286A94EDB37AA9EE898A94EDB2AAEBEE3B
:1059CC002A7ADFED370AE0EE2A6A69462046B0EE05
:1059DC00600AB0EE481A84EDB48AA7EE89AAA6EE46
:1059EC00897A84EDB2AAB0EE478A84EDB37AFFF7D8
:1059FC005DFFB7EECA1A9DED012AB7EEEA6AB7EE63
:105A0C00C87A9DED023A9DED034AB7EEC22A9DED90
:105A1C00005AB7EEC33AB7EEC44A0022B7EEC55AE5
:105A2C0000231BA1D1E9000184ED081B84ED0A7B46
:105A3C00B7EEE81AB7EEE97AC4E91601C4E9240115
:105A4C00C4E95C0114A1D1E90001C4E90C2384ED83
:105A5C000E2B84ED103B84ED124B84ED145B84ED26
:105A6C005E6B84ED601BC4E96223C4E96423C4E962
:105A7C00662384ED687BC4E96A01C4E97801C4E952
:105A8C00B00104B0BDEC088B10BD00BFAFF30080BB
:105A9C00FCA9F1D24D62503F2D431CEBE2361A3F6C
:105AAC000000000080ED000AC0ED010A80ED021A32
:105ABC00C0ED031A80ED042A704700BF00000000FF
:105ACC0070EE600AB5EE400A90ED065BB7EEE04A68
:105ADC00F1EE10FA90ED0A6B34EE055B34EE466B8A
:105AEC0080ED065B80ED086B0ED1F5EE400AF1EE11
:105AFC0010FA09D19FED1A7BB0EE476BB0EE475B05
:105B0C0080ED067B80ED087B90ED037A90ED022A08
:105B1C00B7EEC77A90ED043AB7EEC22A90ED000AC0
:105B2C00B7EEC33A27EE057BB7EEC00A80ED0A4B01
:105B3C00A2EE047BA3EE067BB4EEC70BF1EE10FADB
:105B4C000ADC90ED010AB7EEC00AB4EEC70BF1EE19
:105B5C0010FA58BFB0EE470B704700BFAFF3008090
:105B6C00000000000000000001F056BF01F0EEBE86
:105B7C002DE9F047884651B3914662B3824600271F
:105B8C00164C174E25680BE001F046FF002810DA82
:105B9C0001F0E6FF2368DAF808205B1B934210D271
:105BAC00DAF800305B69B342EED0504698470028D3
:105BBC00EEDB013708F8010BB945E3D13846BDE8F7
:105BCC00F087012338468AF80C30BDE8F0870F4681
:105BDC003846BDE8F0871746F0E700BF94950020E3
:105BEC00F93C0000A249A34B88422DE9F047A24C96
:105BFC005E699A69D4F80C801BD9A04B984240F28C
:105C0C000281C31A9E491B0AA1FB031340F22761B0
:105C1C00DB0903EB830303EB830303F2E2438B42C5
:105C2C0028BF0B46A3F54877964BA3FB0737FF0815
:105C3C0004E0954FB8428CBF0E2706278D4908F01B
:105C4C001F09D1F88030B94543F0C003C1F880304A
:105C5C000CD228F01F08A1F5F82148EA0708C1F872
:105C6C000C800B68002BFCDA08F01F0916F000738F
:105C7C0024D186490C698649A14300F0EA8082F45C
:105C8C00805134464FF4805514F0605F04D026F0F8
:105C9C0060561E43774B5E6111F4405F07D022F4CF
:105CAC00405274492A438A618B6C1A07FCD446F023
:105CBC000076704A5661936C9B06FCD4754CA042DE
:105CCC0000F2CE804FF0010C0146634603FB01123B
:105CDC0003F1010E0CF10105A24218D8BEF1080F18
:105CEC004FF0010340F08D80BCF1040F00F2918065
:105CFC000A18A24200F2A48005FB00F1AC4603F1A5
:105D0C00010E03FB01120CF10105A242E6D90CF1C4
:105D1C00FF318C0286EA81215F4810445F4A904231
:105D2C007FD9DFF8A4A16C225D48584DB0FBFEF082
:105D3C00D5F800E0B0FBFCF0DFF890C10EEA0C0CDB
:105D4C00D44509D042F400524FF4805CC5F800C031
:105D5C002A602A68002AFCDA464A156905F007050C
:105D6C009D4203D01361936CDD03FCD411F4E05F0E
:105D7C0009D026F4E05604F4E0543E4A264356611A
:105D8C00936C9907FCD44749474A014491423CD84B
:105D9C00464BC909A3FB0131090B4B1E1B0286EABA
:105DAC00030212F4407F06D026F4407603F44073CD
:105DBC00304A334353612F4A536923F000735361C4
:105DCC00936C9B06FCD43A4B4F45A3FB00234FF03E
:105DDC00FF324FEA9343B0FBF1F1B2FBF3F3354AD8
:105DEC001060354A1160354A136008D228F01F083C
:105DFC00214A48EA0707D7601368002BFCDABDE894
:105E0C00F087734662E7122718E74FF440730421BA
:105E1C00C5E70CF1FF31204807238C02104486EAB9
:105E2C008121274ADFF8A8A0A2FB0020020D2548FB
:105E3C00362A38BF362202FB00F042EA0A0A74E71F
:105E4C004FEA8C24002386EA8C214FF0010EAC46DD
:105E5C0062E71D4686F0C05411464FF0C05313E75D
:105E6C0000244FF0010C024631462346E64653E728
:105E7C0000A4781F00C00F40000008400046C32358
:105E8C0023B24C001F85EB5100366E0100800D4093
:105E9C0040300080FFB19F26808D5B00FF7EF64D69
:105EAC0000643F4D7FD1F0087F17B42C9F10E500A4
:105EBC0083DE1B437C2000207820002018950020D6
:105ECC00819F5E16001BB7006C2000807F30018024
:105EDC000020008000B970472DE9F84F0121814660
:105EEC00214C224D224E54E8003F2A68306844E889
:105EFC000013002BF7D11F494B684FF47A7BDFF866
:105F0C0078A01B1A01270BFB02F8DAF80020A3FB80
:105F1C0002325A4594BF9044D84454E8003F2A6852
:105F2C00306844E80073002BF7D14B68DAF800C0F6
:105F3C001B1A0BFB02F2A3FB0C3CBCF57A7F94BF43
:105F4C00624402F57A72A2EB0802B2F57A7F06D3AC
:105F5C00B9F1010908F57A78DFD1BDE8F88F01F0C5
:105F6C00FFFD0449D9E700BF9895002094950020C7
:105F7C0090950020001000E01895002030B40F4BD5
:105F8C004FF0010C0E4D0F4C53E8002F2868216880
:105F9C0043E800C2002AF7D10B4B5B680B4A5B1A33
:105FAC004FF47A71126801FB00F0A3FB023230BC93
:105FBC008A4294BF80184018704700BF9895002003
:105FCC009495002090950020001000E0189500207A
:105FDC00272816D80201104B03EB00109B5810B465
:105FEC00C2685C68144205D061B95DF8044BC3F813
:105FFC0088207047836851B1084A5DF8044B1A60D9
:10600C00704770475DF8044BC3F884207047044A0E
:10601C005DF8044B1A607047A40D002038F00100A5
:10602C003830010027280BD8064B020103EB001077
:10603C009A58C36892681A4214BF01200020704716
:10604C0000207047A40D0020272829D8164B0201E8
:10605C00012903EB00109A5810B45368C4680ED091
:10606C0004290CD023EA040353608368A9B10229E4
:10607C0017D003290CBF0D4A0D4A1A6007E02343C1
:10608C0001295360836808D040F638021A604368CF
:10609C0015225DF8044B1A60704738221A60F6E737
:1060AC007047044A1A60F2E7A40D00203830010052
:1060BC003800010038F00100704700BF272858D87D
:1060CC000001F0B4344C354D2358AB4256D049D86E
:1060DC00B3F1844F4BD0A5F58045AB4240D1304D48
:1060EC002044304E304CC4F8B462D0E901C4C068CE
:1060FC004FF0E0264FF00057042AC6F810712FD845
:10610C005E6926EA00065E614FF00506CCF8006079
:10611C00266846F4803626605C6824EA00045C60DD
:10612C00224C54F8224090FAA0F2B2FA82F245F8CE
:10613C0022106FEA00011DD0DD690F2A01EA05016A
:10614C00D9611DDC52000325D968944005FA02F28E
:10615C0021EA02022243DA6098615A6902435A61C9
:10616C00F0BC7047124DAB42FAD1124DB8E7124D4C
:10617C00B6E77047DA690243DA61EDE70F4DAFE736
:10618C00103A032519695200944005FA02F221EAEB
:10619C00020222431A61DFE7A40D002000800042B6
:1061AC009431002021000000003800208C060020D3
:1061BC0000C0004294320020143100201432002020
:1061CC0008B5FDF775FDFEF7DBFB01F0C9FCFAE73E
:1061DC00844641EA000313F003036DD1403A41D3E6
:1061EC0051F8043B40F8043B51F8043B40F8043BA5
:1061FC0051F8043B40F8043B51F8043B40F8043B95
:10620C0051F8043B40F8043B51F8043B40F8043B84
:10621C0051F8043B40F8043B51F8043B40F8043B74
:10622C0051F8043B40F8043B51F8043B40F8043B64
:10623C0051F8043B40F8043B51F8043B40F8043B54
:10624C0051F8043B40F8043B51F8043B40F8043B44
:10625C0051F8043B40F8043B51F8043B40F8043B34
:10626C00403ABDD2303211D351F8043B40F8043BD4
:10627C0051F8043B40F8043B51F8043B40F8043B14
:10628C0051F8043B40F8043B103AEDD20C3205D3E4
:10629C0051F8043B40F8043B043AF9D2043208D0DC
:1062AC00D2071CBF11F8013B00F8013B01D30B884E
:1062BC0003806046704700BF082A13D38B078DD02C
:1062CC0010F003038AD0C3F10403D21ADB071CBFFE
:1062DC0011F8013B00F8013B80D331F8023B20F868
:1062EC00023B7BE7043AD9D3013A11F8013B00F8A1
:1062FC00013BF9D20B7803704B7843708B78837029
:10630C006046704701F1FF3C70B56646002400E022
:10631C000134B0FBF2F502FB1503092B03F1370E28
:10632C0003F130035FFA8EFE98BF5FFA83FE904252
:10633C00284606F801EFEBD2631C0022C818CA5499
:10634C007CB162461CF8015F10F8016DA1EB0C03E7
:10635C0002328CF80060013B521A057023449A42B9
:10636C00EFDB084670BD00BF4FF0010C0CFA01FCCE
:10637C0001EB410100EB411170B5B1F80EE01FFAD1
:10638C008CF5254C1FFA8EFE24782E010EFB033360
:10639C0006F0F006E340B0F888417345A4B228BF7C
:1063AC0073463443012AA0F888410DD0022A28D024
:1063BC00C2B10CF00F02B0F888C11FFA8CFC4CEA89
:1063CC00020CA0F888C170BD9BB20CF00F022D021C
:1063DC00CB82B0F8803105F470659BB22B43A0F8EA
:1063EC008031E8E7AEEB030E0CF00F021FFA8EFEC5
:1063FC00A1F80AE0B0F880319BB21343A0F88031C9
:10640C00D9E79BB20CF00F02CB83B0F880319BB272
:10641C001E43A0F88061CEE7A036002001EB4103BB
:10642C00F6EE006A00EB4313B3F80EC0314B1FFAC3
:10643C008CFC93ED007AB8EE477A70B5C7EE007A13
:10644C004FF0010E4E000EFA01FE1FFA8EF577EE9C
:10645C00A67AFCEEE77A17EE903AB3F5803F46D376
:10646C0000224FF6FF745B080132A34201D9062AC1
:10647C00F9D9120142F4806292B2022B4FF6FF74EA
:10648C004FEA0515314438BF02230EF00F0EEDB262
:10649C00A34200EB411128BF2346B0F88841A4B2B7
:1064AC002C43A0F88841CA805A1E92B2CA814A89EC
:1064BC0092B203FB02F2B2FBFCF292B24A81CA8A9C
:1064CC0092B203FB02F2B2FBFCF292B2CA82CA8B0A
:1064DC0092B202FB03F3B3FBFCF39BB2CB83B0F899
:1064EC0088319BB243EA0E03A0F8883170BD4FF49B
:1064FC008062C2E778200020214BF6EE006A4FF64E
:10650C00FE7C93ED007AB8EE477AC7EE007A77EE10
:10651C00A67AFCEEE77A17EE903A63452CD9002266
:10652C005B080132634501D9062AF9D9083242F2D7
:10653C00260C4CEA422C1FFA8CFC022B00EB41116E
:10654C004FF6FE7038BF02230A8A834292B228BFEC
:10655C000346C88880B2C0F10110104403FB02F25C
:10656C00B2FBF0F29B1A92B2C3F101039BB2CB8047
:10657C000A82A1F80CC0704743F2260CDDE700BF7D
:10658C007820002027284BD8F8B52A4D044615F85A
:10659C00202005EB8005012A2DD0022A3FD16B78F3
:1065AC00C3F3011003283ED0234A02EB803203F0E0
:1065BC00030C224889B2634602EB4C1C0678BCF8EB
:1065CC0006E05801BCF810301FFA8EFECEF1011E09
:1065DC001EFA83F303F1FF3E0EFB01F1F1408E45F1
:1065EC0023D95B1AC3F101039BB289B20244ACF804
:1065FC00063011820DE06A78C2F30113032B10D020
:10660C000F4800EB83308BB202F00301AA78FFF73E
:10661C00ABFE0C4BEA7803EB04135B681A60F8BD15
:10662C0070470948EFE7094AC1E7991E4FF6FF7317
:10663C00DBE700BF1C12002000C01D40A03600206C
:10664C0000C03D40A40D002000803E4000801E4054
:10665C00272808D8154B13F8202003EB8003012AB8
:10666C0002D0022A0DD070475978C1F30112032AC7
:10667C0013D00F4801F0030100EB82309A78FFF73A
:10668C00CDBE5978C1F30113032B0CD0094800EB94
:10669C00833001F00301FFF72FBF074801F003011E
:1066AC009A78FFF7BBBE0548F3E700BF1C12002029
:1066BC0000C03D4000C01D4000803E4000801E4098
:1066CC0000230F2248F2B82C194610B54FF4704431
:1066DC004FF4806EA0F88C414FF46044A0F88E21EA
:1066EC000A46A0F89031B0F888319BB243F0F00321
:1066FC00A0F8883101EB4103013100EB431304296D
:10670C009C80A3F806E05A841A865A805A81A3F812
:10671C000EC05A82DA825A83DA83EBD1B0F8883110
:10672C009BB243F00F03A0F88831B0F888319BB2CC
:10673C0043F47063A0F8883110BD00BF374B384A62
:10674C00996F384841F47F0170B5996741F20106A1
:10675C00D3F8801045F6C05543F226040A43C3F81B
:10676C008020FFF7ADFF00F58040FFF7A9FF00F593
:10677C008040FFF7A5FF00F58040FFF7A1FF002246
:10678C00A0F503104FF00F0E114600EB42134FEA29
:10679C00421C01329981042A5981A3F80EE09E8291
:1067AC00DD8020F80C1019829C81EED100221E484D
:1067BC004FF00F0E41F20106114645F6C05543F25B
:1067CC00260400EB42134FEA421C01329981042A41
:1067DC005981A3F80EE09E82DD8020F80C101982FE
:1067EC009C81EED1002211480F2641F20105114681
:1067FC0045F6C05443F2260E00EB42134FEA421CFE
:10680C0001329981042A5981DE819D82DC8020F835
:10681C000C101982A3F80CE0EED170BD00C00F4033
:10682C00000003FC00C03D4000001E4000401E4024
:10683C0010280346044A28BF10231078012B38BFB8
:10684C0001231370704700BFA036002072B6EFF31F
:10685C000583524CC4F884301EF0040F0CBFEFF3C8
:10686C000882EFF309824FF0E0234D4E4D4DD3F8E3
:10687C00280DD3F82C1DC4E92201D3F8341DD3F80C
:10688C00383DC4E924139369C4F89830D369C4F82B
:10689C009C3000F0D5F884ED280A01F00FFA0B219A
:1068AC004FF0FF32C4F8A4000B46C4F880103E49E8
:1068BC00301D5A40202402F00103013C01FB03F37C
:1068CC0083EA5202F7D1A84202D073680646EFE77A
:1068DC00324BC3F8A820BFF34F8F4FF0E023304961
:1068EC00324AC3F8701FC3F8702FBFF34F8FBFF33A
:1068FC006F8F2F4A02252F48D36E2F4943F44053F4
:10690C00D3660560D3692D4823F07F0343F0400321
:10691C00D3610B6883423DD8264D00214FF0E02314
:10692C004FF0FF3229600126C5F808112449C5F83B
:10693C000011C5F80861C3F88021C3F88421C3F89D
:10694C008821C3F88C21C3F8902101E000F06AF98A
:10695C00D5F80C31002BF9D00134C5F80C614F2C53
:10696C00F4D9184B022018494FF00042C1F84001ED
:10697C005A63D5F80C313BB9144815490D4A0163DB
:10698C00D2F80C31002BFAD04FF0E023114AC3F8A7
:10699C000C2DFEE7FFF726F9BEE700BF00FF27200E
:1069AC0080FF2720A8FF27202083B8EDA0FF2720F9
:1069BC0000C00F40004008407C200020803DCD0BE3
:1069CC00009F240000900D4000002E4000800F40DE
:1069DC00F100AD0B0400FA050A490A6838B108B594
:1069EC0013180948834204D810460B6008BD1046A2
:1069FC00704712F03DFB0C234FF0FF320360104642
:106A0C0008BD00BF1425002000002820002070477E
:106A1C004FF0FF30704700BF4FF4005300204B6025
:106A2C00704700BF012070474FF0FF30704700BF28
:106A3C0030BFFDE730BFFDE730BFFDE7FFF706BF16
:106A4C00124AD2F880305B07FBD5D2F88030104860
:106A5C00C3F30B230F4990ED007A07EE903A91EDBA
:106A6C00006AB8EE477A0C4AF8EEE77A0B4BD2ED97
:106A7C00006A77EEC77A93ED007AB8EE477A67EE44
:106A8C00867A87EEA60A37EE400A704700810D40E1
:106A9C000895002010950020149500200C950020DE
:106AAC00836BF0B41BB1536843F40043536072B66C
:106ABC00446B3CB31A4B2260D3F8B0410C421DD14D
:106ACC00184E776804E07468E41BB4F5166F0BD2AB
:106ADC00D3F8404144F48044C3F84041D3F8B85152
:106AEC00D3F840416404EED50D4007D10C4CC0E9FD
:106AFC000225D4F8B0310B43C4F8B031426362B60E
:106B0C00F0BC7047064DC0E90224D5F8B0310B43F8
:106B1C00C5F8B0310263426362B6F0BC704700BF87
:106B2C0000002E40001000E070B5056B9DB10646CC
:106B3C002A46002403E012680134012A0CD0536861
:106B4C0013F08003F7D032632CB12846B36B2D6859
:106B5C009847013CF9D170BDC6E90C33F4E700BF8E
:106B6C0030B4D9B91F4C204B0021204A01254FF0DD
:106B7C00011099601D60C4E9023180245C60C2F888
:106B8C00BC01D2F8B0311A482B43C2F8B0310160C5
:106B9C00D2F8B031002BFBD130BC70470904154B37
:106BAC00104C012541F080019860104A596000F5A5
:106BBC0080511D60D96000F50051A364196100F586
:106BCC00405100F58040596100219861E164D2F890
:106BDC00B03143F48033C2F8B031D2F8B031002B6D
:106BEC00FBD1C0E700000020C03A002000002E407E
:106BFC00D0920020E03A0020084901220B7802FADA
:106C0C0000F023EA0000087030B9054AD2F8483188
:106C1C0023F08003C2F84831704700BF87960020EC
:106C2C0000002E402DE9F04F974C83B0D4F84471FE
:106C3C00FB07C4F8447153D5D4F8AC21002A4AD0D0
